:020000040800F2
:10000000000E00209D010008FD1000083D080008BA
:10001000A51000083D020008872800080000000025
:10002000000000000000000000000000F1180008BF
:1000300011030008000000001D140008711B0008D7
:10004000B7010008B7010008B7010008B7010008B0
:10005000B7010008B7010008B7010008B7010008A0
:10006000F5030008310400086D040008B70100081A
:10007000B7010008B7010008B7010008B701000880
:10008000B7010008B7010008B7010008B701000870
:10009000B7010008B7010008B7010008A90400086B
:1000A000F91D0008B7010008B7010008B7010008F2
:1000B000B7010008B7010008B7010008B701000840
:1000C000B7010008B7010008B7010008B701000830
:1000D000B7010008B7010008B70100084125000872
:1000E000B7010008B7010008B7010008B701000810
:1000F000B7010008B7010008B7010008B701000800
:10010000B7010008B7010008911F0008B7010008F7
:1001100019240008B7010008B7010008B70100085A
:10012000B7010008B7010008B7010008B7010008CF
:10013000B7010008B7010008B7010008B7010008BF
:10014000B7010008B7010008B7010008B7010008AF
:10015000B7010008B7010008B7010008B70100089F
:10016000B7010008B7010008B7010008B70100088F
:10017000B7010008B7010008B7010008B70100087F
:10018000B7010008B7010008DFF80CD000F044F810
:100190000048004729290008000E00200648804733
:1001A00006480047FEE7FEE7FEE7FEE7FEE7FEE75C
:1001B000FEE7FEE7FEE7FEE7791B0008890100087D
:1001C00040EA01039B0703D009E008C9121F08C0D9
:1001D000042AFAD203E011F8013B00F8013B521E59
:1001E000F9D27047D2B201E000F8012B491EFBD2D0
:1001F00070470022F6E710B513460A460446194632
:10020000FFF7F0FF204610BD421C10F8011B00292B
:10021000FBD1801A70470000064C074D06E0E068ED
:1002200040F0010394E8070098471034AC42F6D33D
:10023000FFF7AEFFF49200081493000800BFFEE73A
:1002400010B50446242C0CD101201D4908701D480E
:100250001D49097844541C480078401C1A4908700C
:100260002CE01748007800B910BD164816490978E7
:10027000445415480078401C13490870232C10D1B1
:1002800000200F4908701049087064220D490F487A
:10029000FFF796FF01200E49087064210948FFF717
:1002A000A8FF09480078642808DB0020044908708A
:1002B0000549087064210348FFF79BFF00BFD3E79F
:1002C000DA00002026090020DB0000208A09002037
:1002D000CF00002010B50C484078442800D010BD55
:1002E000002009E000EB8001891D074A515C30398C
:1002F000064A1154411CC8B20828F3DB64210248A5
:10030000FFF777FF00BFEAE78A090020D00000204E
:100310007047000030B513480068134AB0FBF2F193
:10032000481EB0F1807F00D31BE0481E4FF0E02252
:10033000506150170F22002807DA13071D0E0B4BD0
:1003400000F00F04241F1D5503E013071C0E084B7B
:100350001C5400BF00204FF0E02290610720106184
:1003600000BF30BDE800002040420F0018ED00E063
:1003700000E400E04FF47A714143044A116000BF89
:10038000024909680029FBD17047000044000020A1
:100390000349086000BF024909680029FBD1704782
:1003A0004400002002460B46D11A00EE901AF8EEE7
:1003B000E00A0D4890ED001A60EE810A0B480068D3
:1003C000081A01EE100AB8EEC11A0948D0ED001A59
:1003D00041EE210AB0EE600A04480160FDEEC00A59
:1003E00010EE900A70470000180000204000002026
:1003F0002000002010B5042000F07AF8012812D166
:100400000421094800F0BFF950B90821064800F05E
:10041000BAF928B905480088401E00B2034908808F
:10042000042000F05FF810BD0010024048000020DA
:1004300010B5082000F05CF8012812D10821094805
:1004400000F0A1F950B90421064800F09CF928B940
:1004500005480088401C00B203490880082000F0CD
:1004600041F810BD001002404800002010B51020D7
:1004700000F03EF8012812D11021094800F083F95C
:1004800050B92021064800F07EF928B905480088B7
:10049000401E00B203490880102000F023F810BD70
:1004A000001002404A00002010B5202000F020F883
:1004B000012812D12021094800F065F950B9102116
:1004C000064800F060F928B905480088401C00B2D1
:1004D00003490880202000F005F810BD00100240FC
:1004E0004A0000200149086070470000143C0140A8
:1004F00001460020034A12680A400AB1012000E0C8
:1005000000207047143C0140002123498279002AD1
:100510003AD00A46126803689A430B461A600A1DCD
:10052000126803689A430B1D1A60027911440A6825
:1005300003681A430A60184A0832126803689A432B
:10054000154B08331A601A1D126803689A43124B40
:100550000C331A604279102A0ED11A1F12680368F0
:100560001A430D4B08331A601A1D126803681A43A8
:10057000094B0C331A600DE00749427911440A68AF
:1005800003681A430A6005E0027911440A680368A7
:100590009A430A6070470000003C01400349B1F9EA
:1005A00000000021014A1180704700004A0000202D
:1005B0000349B1F900000021014A11807047000091
:1005C0004800002000B585B00121112000F028FF6F
:1005D0003C20039000208DF8100003208DF81100BE
:1005E00001208DF8130003A9304800F061F80121C3
:1005F000880300F035FF0221042001F07BF903217C
:10060000042001F077F90421084601F073F905216F
:10061000042001F06FF93C20009000208DF80400C8
:100620000C208DF8050001208DF806006846FFF7C4
:100630006BFF08208DF8080003208DF809000220C8
:100640008DF80A0001208DF80B0002A800F058FD7B
:1006500009208DF8080002208DF809008DF80A00A5
:1006600001208DF80B0002A800F04AFD0A208DF849
:10067000080003208DF8090002208DF80A000120EF
:100680008DF80B0002A800F03BFD17208DF8080044
:1006900002208DF809008DF80A0001208DF80B006A
:1006A00002A800F02DFD05B000BD000000100240C2
:1006B000F0B50A4600210023002400BF3DE00125DB
:1006C00005FA01F3156805EA03049C4234D1056874
:1006D0004F000326BE40B543056015794E00B54076
:1006E0000668354305601579012D02D01579022D74
:1006F00016D185684F000326BE40B5438560557905
:100700004E00B540866835438560456801268E40B9
:10071000B5434560456896798E40B6B2354345602D
:10072000C5684F000326BE40B543C560D5794E006D
:10073000B540C6683543C560491C1029BFD3F0BD1C
:10074000F0B5002300244D07ED0E02FA05F3CE109C
:1007500000F1200555F826504E07F70E0F26BE4033
:10076000B543CF1000F1200646F82750CE1000F117
:10077000200555F8265045EA0304CE1000F1200567
:1007800045F82640F0BD0246002013690B400BB12E
:10079000012000E0002070474183704701837047CB
:1007A00070B5002400260020214908600520FFF7CD
:1007B000EFFD01201F49C1F888021420FFF7E8FD72
:1007C00000201B4908601C49486209E0601C84B293
:1007D0000A20FFF7DDFDB4F5FA7F01DB002070BDD4
:1007E00013487C3800680028F0D00121124801F03D
:1007F0002AFC002409E0601C84B21420FFF7C8FD25
:10080000B4F5966F01DB0020E9E709487C38006801
:100810000128F0D00848406A86B20021064801F05D
:1008200012FC3A2096FBF0F085B22846D7E700008C
:1008300088024142000041420010004000BFFEE734
:10084000182805D0A22807D16421054A117004E0B8
:100850006521034A117000BF00BF00BF7047000050
:10086000E500002010B52C488089401E83B22A483C
:100870004089401E82B20021084600F019FA27483C
:1008800000884FF6BF710840244908800846008858
:1008900040F4006008800846008840F0400008806E
:1008A000C8141F49088000240DE01B4880881B499C
:1008B0000C31088000BF19480830008800F00200A1
:1008C0000028F8D0641C144840891349898948439A
:1008D000A042EAD800BF11480830008800F080002C
:1008E0000028F8D14FF400600D49891E08800B489C
:1008F00000884FF6BF710840084908800846008804
:100900004FF2FF710840054908800846008840F012
:100910004000088010BD00000C090020003C004091
:100920001A0C024008B50DE00021009104E0BDF86A
:100930000010491C89B20091BDF8001041F28832C4
:100940009142F4DB0100A0F10100EDD108BD0000EF
:100950002DE9F05F0746884614460025A946002683
:10096000AA46A4F12000C4B24FF400602D490880CB
:1009700000BF34E02C48006800682B4909680989E9
:1009800004FB015110F801B04FF0000921E00BF019
:10099000010028B125480088254921F8160004E007
:1009A00022488088224921F816004FEA6B0B701C00
:1009B00086B20AF101001FFA80FA1B48006880889D
:1009C000504502D14FF0000A06E009F101001FFA7C
:1009D00080F9B9F1080FDADB00BF681C85B2124854
:1009E00000680089A842C5DC0F480068C088404400
:1009F000401E83B20C48006880883844401E82B292
:100A00004146384600F054F9074800688088064A95
:100A10001268D288504381B2054800F059FABDE807
:100A2000F09F00001A0C0240C40000200C090020B6
:100A30000C0100202DE9F74F07461546002400263B
:100A4000A046A34622E04048006802683E4800688D
:100A50000089611C4843105C297888420ED13A48CD
:100A600000680168384800680289601C00FB0210B9
:100A700040786978884201D1A14608E0A01C84B280
:100A8000314800684089A04200DC00E0DBE700BF9D
:100A90000024002634E02C48006800682A490968D0
:100AA000098909FB010010F806A04FF0000821E0B9
:100AB0000AF0010028B125480088254921F81400D2
:100AC00004E022488088224921F81400601C84B286
:100AD0004FEA6A0A0BF101001FFA80FB1A4800680E
:100AE0008088584502D14FF0000B06E008F1010064
:100AF0001FFA80F8B8F1080FDADB00BF701C86B26D
:100B0000114800680089B042C5DC0F480068C18800
:100B100001980844401E83B20B480068808838441E
:100B2000401E82B23846019900F0C2F806480068BB
:100B30008088054A1268D288504381B2044800F088
:100B4000C7F9BDE8FE8F0000C80000200C09002096
:100B50000C01002070B505460E46144619E02078B9
:100B60007F280BDC227831462846FFF7F1FE0B4840
:100B700000688088284485B2641C0AE02246314619
:100B80002846FFF757FF064800688088284485B24A
:100B9000A41C20780028E2D170BD0000C400002011
:100BA000C80000201CB50121C80300F049FC012148
:100BB0000A2000F035FC062203212448FFF7C0FD7F
:100BC000062205212148FFF7BBFD02208DF8040015
:100BD00003208DF8050000208DF806008DF8070031
:100BE0000820009069461948FFF762FD2020009018
:100BF00069461648FFF75CFD01208DF804000220CD
:100C00008DF805008002009069461148FFF750FDFD
:100C10004FF48050009069460D48FFF749FD4FF4AE
:100C20000050009069460A48FFF742FD4FF480519A
:100C30000748FFF7B3FD4FF40060054918310880FD
:100C400081000348FFF7A8FD1CBD0000000402401E
:100C5000000C024000B585B00121C80300F0F0FB94
:100C60004FF44040ADF800004FF48270ADF8020040
:100C70000020ADF80400ADF80600ADF808004FF410
:100C80000070ADF80A000020ADF80C00ADF80E00C1
:100C90000720ADF810006946044800F01DFD012151
:100CA000024800F00DFD05B000BD0000003C004012
:100CB0002DE9F04104460D4616461F464FF40060EC
:100CC000184908802A2000F051F91749897B2144EE
:100CD00088B200F075F91449897B314488B200F07C
:100CE0006FF92B2000F042F90F49C97B294488B2E3
:100CF00000F066F90C49C97B394488B200F060F90C
:100D00002C2000F033F900BF0848008800F0800074
:100D10000028F9D14FF400600249891E0880BDE81F
:100D2000F08100001A0C02400C090020083C004031
:100D30000149086070470000C400002030B500235E
:100D40000021002200F47804230A00F47C446109A5
:100D5000C0F3C40243EA01041443014D6C6030BD8A
:100D60000C09002030B500230021002200F4780493
:100D7000230A00F47C446109C0F3C40243EA01047D
:100D80001443014D2C6030BD0C09002010B5044601
:100D90002E4844724FF400602D49088084B93620F3
:100DA00000F0E4F8702000F023F91420274988733C
:100DB0000020C8734FF48C704881F020888137E0A0
:100DC000022C10D1362000F0D1F8002000F010F9EC
:100DD00000201E4988731420C873F02048814FF406
:100DE0008C70888124E0012C10D1362000F0BEF8F0
:100DF000A02000F0FDF81420144988730020C87367
:100E00004FF48C704881F020888111E0032C0FD1C1
:100E1000362000F0ABF8C02000F0EAF800200B49C3
:100E200088731420C873F02048814FF48C70888137
:100E300000BF0848008800F080000028F9D14FF476
:100E400000600349891E088010BD00000C090020C5
:100E50001A0C0240083C004013490860818814299C
:100E600012D004DC0C2907D0102919D108E0182968
:100E70000ED0202914D10FE00C490D4A116010E06A
:100E80000C490B4A11600CE00B49094A116008E05B
:100E90000A49074A116004E00949054A116000E067
:100EA00000BF00BF70470000C8000020B80000204D
:100EB000C4000020AC000020A0000020940000200E
:100EC0008800002001490872704700000C090020CA
:100ED00010B50246234B1B884FF6BF742340214CAC
:100EE000238023461B8843F40063238023461B880A
:100EF00043F040032380E3141B4C238000200DE0CB
:100F000032F81030174C0C34238000BF154B0833D7
:100F10001B8803F00203002BF8D0401C8842EFD35B
:100F200000BF104B08331B8803F08003002BF8D15F
:100F30004FF400630C4CA41E23800A4B1B884FF611
:100F4000BF742340074C238023461B884FF2FF7455
:100F50002340044C238023461B8843F04003238016
:100F600010BD0000003C00401A0C024010B50446C1
:100F700000BF1148008800F080000028F9D14FF42C
:100F800080510E48FFF708FC0B48001D048000BF8D
:100F90000948008800F002000028F9D000BF064888
:100FA000008800F080000028F9D14FF480510348F8
:100FB000FFF7F4FB10BD0000083C0040000C0240AD
:100FC00001120A4A118000BF0849091F098801F06F
:100FD00002010029F8D00549088000BF0349091F14
:100FE000098801F002010029F8D070470C3C00404C
:100FF0000549088000BF0449091F098801F0020162
:101000000029F8D0704700000C3C00401CB50121BD
:10101000402000F005FA01208DF8040000208DF832
:10102000060001208DF8070000208DF805008020C3
:10103000009069460348FFF73BFB80210148FFF71A
:10104000ABFB1CBD001802401CB50121084600F096
:10105000E7F90121202000F0E3F901208DF80400D8
:101060004FF4DA70009002208DF8050000208DF812
:10107000060069460948FFF71BFB01208DF80400B4
:1010800044F26000009002208DF8050000208DF8E9
:10109000060069460248FFF70BFB1CBD000002403A
:1010A0000014024000BFFEE770B504460D4604EB95
:1010B00084004100034801F07BF8284600F0C0FCA2
:1010C00070BD00000020004070B504460D4604EBE2
:1010D00084004100034801F06BF8284600F0DCFC76
:1010E00070BD0000001C004010B500210846FFF74D
:1010F000EBFF00210846FFF7D7FF10BD7047000047
:1011000070B5002100230F22C4781CB3174C24684B
:1011100004F4E064C4F5E064C4F30721C1F10404FD
:10112000E3B20A4144789C40E1B284781440214300
:101130000C07210E0E4C05786155047804F01F054C
:101140000124AC4005786D11AD0005F1E025C5F82E
:10115000004109E0047804F01F050124AC40054D6E
:101160000678761145F8264070BD00000CED00E0D1
:1011700000E400E080E100E038B504460120009082
:1011800000201E494870012000902EE0BDF80000AC
:10119000204018B101201A49086002E000201849D7
:1011A00008600120164918310860052001F0B2FBE3
:1011B00000201449C1F89C02052001F0ABFB01207E
:1011C0001049C1F89C020846D0F8000230B10B4823
:1011D0004078BDF80010084308494870BDF8000089
:1011E0004FF6FF7101EA40000090BDF80000FF28B3
:1011F000CCDD102001F08EFB38BD00001C09002062
:10120000840242420000424210B5002013490860A7
:10121000102001F07FFB0120FFF7AEFF4320FFF716
:10122000ABFF0020FFF7A8FF0120FFF7A5FF00207C
:10123000FFF7A2FF0020FFF79FFF0020FFF79CFFB2
:101240000020FFF799FF0020FFF796FF01200449D7
:10125000C1F89802102001F05DFB10BD98024242D7
:101260000000424210B5002013490860102001F030
:1012700051FB0120FFF780FF4320FFF77DFF002097
:10128000FFF77AFF0020FFF777FF5A20FFF774FF80
:101290005A20FFF771FF5A20FFF76EFF5A20FFF721
:1012A0006BFF5A20FFF768FF01200449C1F898023C
:1012B000102001F02FFB10BD980242420000424274
:1012C0001CB50121102000F0ABF8C22000900120D5
:1012D0008DF8040000208DF8060003208DF805002D
:1012E00001208DF8070069460B48FFF7E1F9C2219C
:1012F0000948FFF753FA0120009000208DF8040000
:1013000003208DF8050001208DF80700694602488A
:10131000FFF7CEF91CBD00000010024010B500F030
:101320000DF800F00BF800F009F8FFF76DFF00F082
:1013300027F800F051F8FFF795FF10BD10B5002019
:101340000D490860102001F0E5FA0120FFF714FFB5
:101350004220FFF711FF0020FFF70EFF0020FFF7EC
:101360000BFF0020FFF708FF01200449C1F8980295
:10137000102001F0CFFA10BD980242420000424214
:1013800010B50020124908600120FFF7F5FE442047
:10139000FFF7F2FE0020FFF7EFFE0120FFF7ECFE63
:1013A0000320FFF7E9FE0020FFF7E6FE0020FFF72D
:1013B000E3FE0020FFF7E0FE0020FFF7DDFE012046
:1013C0000449C1F89802102001F0A4FA10BD0000F1
:1013D000980242420000424210B500200D490860C8
:1013E000102001F097FA0120FFF7C6FE4D20FFF70D
:1013F000C3FE0020FFF7C0FE0020FFF7BDFE012066
:10140000FFF7BAFE01200449C1F89802102001F04C
:1014100081FA10BD9802424200004242704700002B
:1014200029B1064A12680243044B1A6004E0034AD9
:1014300012688243014B1A60704700003038024046
:1014400029B1064A12680243044B1A6004E0034AB9
:1014500012688243014B1A60704700004038024016
:1014600029B1064A12680243044B1A6004E0034A99
:1014700012688243014B1A607047000044380240F2
:10148000F0B5002100220024022500260223324F5D
:101490003F6807F00C0121B1042905D0082937D194
:1014A00005E02E4F076036E02D4F076033E02A4FEE
:1014B0003F1F3F68C7F38056274F3F1F3F6807F025
:1014C0003F036EB1264FB7FBF3F7DFF88CC0ACF1EA
:1014D000040CDCF800C0CCF3881C07FB0CF40CE017
:1014E0001E4FB7FBF3F7DFF870C0ACF1040CDCF86B
:1014F00000C0CCF3881C07FB0CF4174F3F1F3F685C
:10150000C7F301477F1C7D00B4FBF5F7076002E0DD
:10151000124F076000BF00BF0F4F3F6807F0F00198
:101520000909104F7A5C0768D74047600A4F3F6847
:1015300007F4E051890A0B4F7A5C4768D74087600F
:10154000054F3F6807F46041490B064F7A5C4768D6
:10155000D740C760F0BD0000083802400024F40006
:1015600000127A00FC00002000B589B00121084675
:10157000FFF756FF01210804FFF772FF032211460F
:101580003048FFF7DDF8002007900890082007900A
:1015900002208DF8200003208DF8210000208DF816
:1015A00022008DF8230007A92648FFF781F80020C4
:1015B000049005900690A720ADF810000020ADF82B
:1015C000120042F20F7005900020ADF8180004A937
:1015D0001D4800F01DFE00200190029003900420A1
:1015E000ADF804000020ADF806000120ADF80800B9
:1015F0000020ADF80A000F20ADF80C0001A9124838
:1016000000F041FD0020009018208DF8000001201E
:101610008DF8010003208DF8020001208DF80300F1
:101620006846FFF76DFD01220521074800F062FDC5
:101630000521054800F004FD0121034800F003FDE9
:1016400009B000BD000002400040014010B500207C
:10165000184B1B7803F0400353B3174B1B68190E4C
:10166000154B1B68C3F30742D343DBB28B4210D147
:1016700079B9114B1B88C3F307210F4B1A78D34359
:10168000DBB28B4205D1084600230A4C23700A4C7A
:10169000236020B1074B1B7803F0800343B9054B4F
:1016A0001B7823F04003034C23700023034C23706A
:1016B00010BD0000DE000020E0000020E40000205B
:1016C00021B1028842F04002028004E002884FF615
:1016D000BF731A400280704710B50022028802F4DE
:1016E00041520B884C8823438C882343CC88234366
:1016F0000C8923434C8923438C892343CC8923437E
:101700001A430280838B4FF2FF74234083830B8A3A
:10171000038210BD10B5FFF745FAFFF79BFA0520CD
:10172000FFF700F94FF400606E4908803620FFF79C
:101730001DFC0020FFF75CFC3A20FFF717FC05209A
:10174000FFF756FCB220FFF711FC0C20FFF750FC0E
:101750000C20FFF74DFC0020FFF74AFC3320FFF779
:1017600047FC3320FFF744FCB720FFF7FFFB352091
:10177000FFF73EFCBB20FFF7F9FB1920FFF738FC11
:10178000C020FFF7F3FB2C20FFF732FCC220FFF74D
:10179000EDFB0120FFF72CFCC320FFF7E7FB122035
:1017A000FFF726FCC420FFF7E1FB2020FFF720FC19
:1017B000C620FFF7DBFB0F20FFF71AFCD020FFF756
:1017C000D5FBA420FFF714FCA120FFF711FCE020BB
:1017D000FFF7CCFBD020FFF70BFC0420FFF708FC41
:1017E0000D20FFF705FC1120FFF702FC1320FFF787
:1017F000FFFB2B20FFF7FCFB3F20FFF7F9FB5420FA
:10180000FFF7F6FB4C20FFF7F3FB1820FFF7F0FB88
:101810000D20FFF7EDFB0B20FFF7EAFB1F20FFF782
:10182000E7FB2320FFF7E4FBE120FFF79FFBD0203D
:10183000FFF7DEFB0420FFF7DBFB0C20FFF7D8FBF4
:101840001120FFF7D5FB1320FFF7D2FB2C20FFF769
:10185000CFFB3F20FFF7CCFB4420FFF7C9FB512013
:10186000FFF7C6FB2F20FFF7C3FB1F20FFF7C0FBCE
:101870001F20FFF7BDFB2020FFF7BAFB2320FFF757
:10188000B7FB2120FFF772FB1120FFF76FFB7820D9
:10189000FFF748F82920FFF769FB00BF12480088CE
:1018A00000F080000028F9D14FF400600D49891E36
:1018B00008800220FFF76AFA0020FFF73FFA6FF076
:1018C0007F40FFF74FFAFEF7CDFF0848FFF730FAE9
:1018D0000020FFF7F7FA4FF4005102481A38FEF7DC
:1018E0005DFF10BD1A0C0240083C0040940000202F
:1018F0007047000030B500228B071C0F0F2303FA3E
:1019000004F20B4B8C1053F824309343084C8D1089
:1019100044F8253023468C1053F824308C07240FCC
:1019200000FA04F42343024C8D1044F8253030BDF6
:101930000838014010B504462146054800F09FFFD5
:1019400000BF8021024800F0CFFE0028F9D010BD72
:10195000004800400CB50020019000903448006819
:1019600040F480303249086000BF3148006800F41C
:10197000003000900198401C0190009818B901981F
:10198000B0F5A04FF1D12A48006800F4003010B142
:101990000120009001E0002000900098012846D12D
:1019A00023484030006840F08050214940310860B1
:1019B0002048006840F440401E4908601C48083038
:1019C00000681B49083108600846006840F4004080
:1019D00008600846006840F4A05008601648091FD7
:1019E0000860081F006840F08070091F086000BF91
:1019F0000F48006800F000700028F9D040F2057030
:101A00000E4908600A480830006820F003000849C1
:101A1000083108600846006840F00200086000BF16
:101A200003480830006800F00C000828F8D10CBD0D
:101A3000003802400070004008544007003C02405B
:101A400010B5044684B910211148FEF7A7FE2021E5
:101A50000F48FEF7A1FE4FF480410E48FEF79EFEB0
:101A600004210B48FEF798FE012C0FD120210848D5
:101A7000FEF794FE10210648FEF78EFE042104486E
:101A8000FEF78CFEA1030348FEF786FE10BD0000A2
:101A9000000002400014024010B5044684B94FF41F
:101AA00080711148FEF77AFE80210F48FEF774FE20
:101AB00020210E48FEF772FE40210C48FEF76CFE16
:101AC000012C0FD180210848FEF768FE210206484C
:101AD000FEF762FE40210548FEF760FE2021034824
:101AE000FEF75AFE10BD0000000002400014024044
:101AF00000B585B001210420FFF792FC01211020E0
:101B0000FFF79EFC0420039001208DF810000020B8
:101B10008DF8120002208DF8110001208DF81300BD
:101B200003A91148FEF7C4FD0820039000208DF89A
:101B300010008DF8130003A90B48FEF7B9FD4CF215
:101B40004F3001905320ADF800000020ADF80200A6
:101B5000ADF808006946054800F05AFB002103482B
:101B600000F071FA05B000BD00080240001000400E
:101B700010B500F045FC10BD10B51548006840F4E4
:101B80007000134908601348006840F001001149D3
:101B9000086000200F49083108600E4800680E49AF
:101BA00008400C4908600D48091D0860081F0068BE
:101BB00020F48020091F0860002006490C310860CD
:101BC000FFF7C8FE4FF0006001498039086010BD82
:101BD00088ED00E000380240FFFFF6FE10300024E0
:101BE000F0B50C46154600210022068C4FF6FE7714
:101BF0003E400684018B028C4FF60C7631407E1CF1
:101C000006EA03162E4331434FF6F576324044F090
:101C10000106324301830284F0BDF0B50C4615463F
:101C2000002100220026078C4FF6EF7C07EA0C0704
:101C30000784018B028C4FF6FF7707EA041640F603
:101C4000FF4739404FF6FF7707EA033739434FF62E
:101C5000FF7707EA052739434FF65F773A4046F0AA
:101C600010073A4301830284F0BDF0B50C461546D7
:101C7000002100220026078C4FF6FF6C07EA0C07B4
:101C80000784818B028C4FF6FF7707EA04264FF614
:101C90000C7739404FF6FF7707EA03172F43394394
:101CA0004FF2FF573A4046F480773A4381830284EB
:101CB000F0BDF0B50C461546002100220026078C29
:101CC0004EF6FF7C07EA0C070784818B028C4FF6E7
:101CD000FF7707EA043640F6FF4739404FF6FF77B3
:101CE00007EA052739434FF6FF7707EA03373943F9
:101CF00045F6FF773A4046F480573A4381830284A1
:101D0000F0BD000000B58BB001218020FFF798FBEB
:101D100001210802FFF794FB01212020FFF780FB3F
:101D2000092208213148FEF70BFD092211462F48F0
:101D3000FEF706FD4FF44070099002208DF8280050
:101D400003208DF8290000208DF82A0001208DF84D
:101D50002B0009A92548FEF7ABFC002024490860A8
:101D600024494862A720ADF818000020ADF81A00F9
:101D700040F2E73007900020ADF8200006A91C488B
:101D8000243800F045FA06A91A4800F041FA60200C
:101D9000ADF804000120ADF806000020ADF81000F9
:101DA00001A91348243800F0AFF901A9114800F047
:101DB000ABF908210E48243800F0E4F908210D4859
:101DC00000F0E0F901210A48243800F02DF9012142
:101DD000084800F029F901210548243800F033F9BA
:101DE0000121044800F02FF90BB000BD001402409F
:101DF000241C00400020004010B501215E4800F086
:101E000031F9F8B15D48007800F08000D0B15B484E
:101E1000007820F01000594908700846007800F05A
:101E20000F0020B90846007840F040000870534881
:101E3000007800F00F000E2805DA50480078401CAA
:101E40004E4908700AE04D48007820F080004B4968
:101E500008700846007800F0F00008700421464839
:101E600000F000F9002810D04548006870B1022148
:101E7000414800F090F900213F4800F09BF93F48AD
:101E8000007840F010003D49087070E03A4800F0DA
:101E9000E6F83C4908800021374800F07CF93748D3
:101EA000007800F0100000285BD03448007800F083
:101EB0008000E8B333480088B0F5967F0DDD3148E7
:101EC0000088B0F5487F08DA2F48006840002E49A6
:101ED000086008460068086043E02A480088B0F5BA
:101EE000AF6F0FDD27480088B0F5E16F0ADA2648AA
:101EF00000684000244908600846006840F001007E
:101F000008602EE01F48008840F69801884228DDCE
:101F10001C48008840F62821884222DA1B480078B5
:101F2000401C1A4908701548007800F0F00000E0E5
:101F300002E01249087014E01248008841F268017A
:101F400088420EDD0F48008841F25C21884208DAA1
:101F50000A48007840F080000849087000200B49CA
:101F600008700648007820F0100004490870052128
:101F7000014800F065F810BD00400140DE0000207F
:101F80000C024042DC000020E0000020E4000020C1
:101F900010B50121084800F065F8012807D1FEF7C7
:101FA00007FB06490860FEF7F9FA054908600121B8
:101FB000014800F045F810BD000C00400C00002066
:101FC000080000207FB505460C4601210820FFF7D8
:101FD00037FA0295A0B2ADF804000020ADF8060073
:101FE000ADF80C0001A90F4800F012F901221146CA
:101FF0000C4800F07FF832208DF8000000208DF8AA
:1020000001008DF8020001208DF803006846FFF7FB
:1020100077F80121034800F007F80121014800F09A
:1020200012F87FBD000C004021B1028842F080020E
:10203000028004E002884FF67F731A4002807047E6
:10204000CA430282704721B1028842F00102028035
:1020500004E002884FF6FE731A4002807047014682
:10206000886B704730B50246002000230024158A93
:1020700005EA0103958905EA010413B10CB10120B9
:1020800000E0002030BD70B505460C46208850B9F0
:102090002389A28861882846FFF7A2FDE1882846A7
:1020A00000F08AF825E0208804280AD12389A28834
:1020B00061882846FFF7B1FDE188284600F085F8E1
:1020C00017E0208808280AD12389A2886188284639
:1020D000FFF7CBFDE188284600F084F809E023896A
:1020E000A28861882846FFF7E4FDE188284600F0D1
:1020F00082F870BD1AB183890B43838102E0838922
:102100008B4383817047000070B5002400220023B8
:10211000058C4FF6FE7635400584028C8388048B4F
:102120004FF68F752C40B51E2C400D882C43751E24
:102130002A408D892A434D882A43104DA84202D057
:102140000F4DA84213D14FF6F7752A40CD892A4387
:102150004FF6FB752A408D882A434FF6FF652B40CA
:102160004FF6FF552B400D8A2B434D8A2B4383801E
:1021700004838D684563028470BD00000000014047
:10218000000401400A460021018B4FF6F773194005
:102190001143018370470A460021018C4FF6DF731B
:1021A00019404FF6FF7303EA021319430184704785
:1021B0004163704741627047028B4FF6F3731A40D8
:1021C0000283028B0A4302837047028B4FF2FF3374
:1021D0001A400283028B4FF6FF7303EA01231A436E
:1021E00002837047828B4FF6F3731A408283828B8F
:1021F0000A4382837047828B4FF2FF331A408283F7
:10220000828B4FF6FF7303EA01231A4382837047E0
:1022100000220288184B98420ED0184B98420BD0DF
:10222000B0F1804F08D0164B984205D0154B98421C
:1022300002D0154B984204D14FF68F731A404B8849
:102240001A43124B984207D0114B984204D04FF6D4
:10225000FF431A400B891A4302804B68C3620B8804
:102260000385054B984202D0044B984201D18B7AEA
:10227000038601238382704700000140000401406F
:102280000004004000080040000C00400010004026
:102290000014004010B54548C07850B1434800795B
:1022A00038B14248407920B14048807808B10120D7
:1022B00000E00020012829D13D4909683D4A126803
:1022C000881A0021FEF76EF80A3084B200212046F9
:1022D000FEF7FAFE36490968364A1268881A002164
:1022E000FEF760F8C0F10A0084B200212046FEF734
:1022F000DBFE31480078401C2F4908700846007802
:10230000FFF718FB4FF4FA70FEF734F8274800790E
:1023100020B12648C07808B1012000E00020E0B9D3
:1023200023490968234A1268881A0021FEF73AF8FF
:10233000143084B200212046FEF7C6FE1C4909680D
:102340001C4A1268881A0021FEF72CF8C0F114000C
:1023500084B200212046FEF7A7FE1448407820B141
:102360001248807908B1012000E00020A8B90F4888
:10237000407838B900211420FEF7A6FE00210A207B
:10238000FEF792FE0948807938B900210A20FEF74D
:102390009BFE00211420FEF787FE074800780A28DC
:1023A00002D100200449087010BD0000D0000020B8
:1023B000080000200C0000202500002010B54FF47C
:1023C000E13000F05DF84FF47A70FDF7D3FF10BDF7
:1023D00010B501220021084600F038FB06480078BD
:1023E000012808D100200449087004480078012819
:1023F00001D1FDF76FFF10BDCF000020D9000020F4
:102400000448006820B103480068401E0149086084
:10241000704700004400002010B540F225510848E4
:1024200000F06FF958B140F22551054800F014F959
:10243000034800F01FFAC4B22046FDF701FF10BDAB
:10244000004C004070B504460D4603E0207800F0D3
:1024500007F8641C2800A5F101018DB2F6D170BD0A
:1024600010B5044600BF8021044800F03DF9002863
:10247000F9D02146014800F002FA10BD004C00409E
:1024800010B588B0044601210846FEF7C9FF0220B6
:102490008DF81C0000208DF81E0001208DF81F0013
:1024A00000208DF81D000120069006A92248FEF7A5
:1024B000FFF80220069006A91F48FEF7F9F8082247
:1024C00000211D48FEF73CF9082201211A48FEF7B9
:1024D00037F90121C804FEF7B3FF4FF4E130029051
:1024E0000020ADF80C00ADF80E00ADF810000C2087
:1024F000ADF812000020ADF8140002A90F4800F05A
:102500004FF901210D4800F0B6F8012240F22551A3
:102510000A4800F020F934208DF8040002208DF8DC
:1025200005008DF8060001208DF8070001A8FEF7D0
:10253000E7FD08B010BD000000000240004C004064
:1025400010B540F22551154800F0DBF8012824D1E0
:10255000124800F08FF91249087008460078FFF71A
:10256000E9F90F48007814280CD00D480078152898
:1025700008D00B480078632801D1012000E000203A
:10258000012802D10120074908700120064908707E
:1025900040F22551014800F05FF810BD00480040AE
:1025A000CC000020CE000020CD00002010B588B067
:1025B000044601210220FEF733FF01218804FEF7C3
:1025C0003FFF07220A212248FEF7BAF807220B2113
:1025D0001F48FEF7B5F84FF44060069002208DF8D2
:1025E0001C008DF81D0000208DF81E0001208DF8C4
:1025F0001F0006A91648FEF75BF827208DF8040097
:1026000001208DF805008DF806008DF8070001A85F
:10261000FEF776FD02940020ADF80C00ADF80E0038
:10262000ADF81000ADF814000C20ADF8120002A9AE
:10263000084800F0B5F8012240F22551054800F0A5
:102640008AF80121034800F016F808B010BD000018
:10265000000402400048004010B50022002340F66C
:102660006A14A14200D100BF0A1201249440A3B20F
:10267000DC43048010BD21B1828942F40052828182
:1026800004E082894DF6FF731A4082817047000092
:102690001CB501210846FEF7C3FE02208DF8040098
:1026A00000208DF8060001208DF8070000208DF82D
:1026B00005004FF40070009069460A48FDF7F8FFE6
:1026C0004FF48060009069460648FDF7F1FF07224D
:1026D00009210448FEF734F807220A210148FEF7D1
:1026E0002FF81CBD0000024002460020B1F5007F1B
:1026F00000D100BF13880B400BB1012000E0002087
:10270000704770B50246002400230025002040F6E3
:102710006A16B14200D100BFC1F3421501F01F0398
:10272000012606FA03F3012D02D19689334006E013
:10273000022D02D1168A334001E0968A33400C12F2
:10274000012606FA04F41688344013B10CB10120B6
:1027500000E0002070BDF0B50346002400260025EF
:10276000002040F66A17B94200D100BF1846C1F3F5
:10277000421401F01F06012707FA06F5012C01D1CA
:102780000C3004E0022C01D1103000E014301AB1FA
:1027900007682F43076002E00768AF430760F0BD9A
:1027A0002DE9FF4705460E460024A14600BFA0467E
:1027B000B08900B100BF2C8A24F44054F08804434F
:1027C0002C82AC8941F20C608443B0883189084383
:1027D000718908430443AC81AC8A24F44074B08905
:1027E0000443AC826846FEF74BFE2048854202D087
:1027F0001F48854202D1DDF80C9001E0DDF8089019
:10280000A88900F4004040B109EBC90000EB0910B1
:1028100031684900B0FBF1F707E009EBC90000EBB4
:10282000091031688900B0FBF1F76420B7FBF0F0C4
:1028300004012009642101FB1078A88900F40040FC
:1028400040B1322000EBC800B0FBF1F000F007000F
:10285000044308E0322000EB08106421B0FBF1F0E3
:1028600000F00F0004432C81BDE8FF8700100140F9
:102870000014014001468888C0F308007047C1F386
:1028800008028280704700BFFEE700001FB50121EB
:102890001020FEF7E5FDFFF7FBFE4FF4E13000905E
:1028A0000020ADF80400ADF80600ADF808000C20DB
:1028B000ADF80A000020ADF80C0069460348FFF7A8
:1028C0006FFF01210148FFF7D6FE1FBD0010014038
:1028D00002E008C8121F08C1002AFAD170477047E9
:1028E000002001E001C1121F002AFBD17047000047
:1028F00010B5FDF755FF064908600846006819281D
:1029000003DAFEF7F1FB002010BD0120FCE7000018
:102910003C0000200349086000BF02490968002903
:10292000FBD1704744000020FEF71EFE4FF4E1305B
:10293000FFF73CFEFEF788FBFFF7E4F9FDF7EAFC42
:10294000FEF764FBFFF7A2FFFDF73CFE2E4942F2C3
:102950001070FFF737FBFEF7C7FBFFF7C9F8FEF76C
:10296000AFFCFEF7DBFCFEF7D5FE0220FEF70EFA09
:102970002648FEF771FA6FF07F40FEF7DFF9244832
:10298000FEF7F0F9FDF76EFF22A20A211720FEF7ED
:10299000E1F80020FEF7E6F92248FEF75DFA22A2F0
:1029A00023210020FEF7D6F822A232210020FEF7D4
:1029B000D1F822A241210020FEF7CCF820A241212B
:1029C0006420FEF7C7F81FA250210020FEF7C2F8CE
:1029D0001DA250216420FEF7BDF8FFF7EFFC12E0C6
:1029E000FEF734FE0446FDF72BFF00211420FEF70E
:1029F0006BFB00211420FEF757FBFFF7E9FCFFF704
:102A000049FCFFF775FFEBE720480100700000204C
:102A10008080FF00536D6172742047756964652082
:102A2000436172004C00002064697374616E6365D9
:102A30003A0000005053324B45593A004C583A0086
:102A40004C593A0052583A0052593A002DE9FC418B
:102A500004460D4616461AA103C9CDE90001012C12
:102A600003D131208DF8010002E030208DF8010003
:102A7000012D06D131208DF8030001201249087084
:102A800005E030208DF8030000200F490870012E6A
:102A900006D131208DF8050001200C49087005E0B1
:102AA00030208DF805000020084908706846FDF7C1
:102AB000ABFB87B239466846FFF7C4FCBDE8FC8132
:102AC00024302C302C302300D8000020D9000020E6
:102AD000000000000000FC070400FC031402A40135
:102AE00066009E0700000000B7B400000000000070
:102AF00000000000000000000000000000000000D6
:102B0000000000006000FE07FA031601FF0FFC033F
:102B10000402FC0300000000BFCD00000000000024
:102B200000000000000000000000000000000000A5
:102B30000000000000017F0184013F014C01F60705
:102B40000501040100000000BFC6000000000000F5
:102B50000000000000000000000000000000000075
:102B60000000000000008400FF078400FC0327032E
:102B7000C400370700000000BCBC000000000000DB
:102B80000000000000000000000000000000000045
:102B90000000000000000000000000000000000035
:102BA0000000000000000000000000000000000025
:102BB0000000000000000000000000000000000015
:102BC0000000000000000000000000000000000005
:102BD00000000000000000000000000000000000F5
:102BE00000000000000000000000000000000000E5
:102BF00000000000000000000000000000000000D5
:102C000000000000000000000000000000000000C4
:102C100000000000000000000000000000000000B4
:102C200000000000000000000000000000000000A4
:102C30000000000000000000000000000000000094
:102C40000000000000000000000000000000000084
:102C50000000000000000000000000000000000074
:102C60000000000000000000000000000000000064
:102C70000000000000000000000000000000000054
:102C80000000000000000000000000000000000044
:102C90000000000000000000000000000000000034
:102CA0000000000000000000000000000000000024
:102CB0000000000000000000FC1F0400FC0F1408CE
:102CC00024046402860162071D3800000000000031
:102CD000B7B4000000000000000000000000000089
:102CE00000000000000000000000000000000000E4
:102CF0000000000000000000C000FE1FF2071802E4
:102D0000E6011F3EF8070804F80700000000000075
:102D1000BFCD000000000000000000000000000027
:102D200000000000000000000000000000000000A3
:102D300000000000000000000008BE09080BFE08AB
:102D40009809EC3F0A080808080800000000000085
:102D5000BFC60000000000000000000000000000EE
:102D60000000000000000000000000000000000063
:102D700000000000000000000402FF3F0402E41F06
:102D80004C10870804078407773800000000000013
:102D9000BCBC0000000000000000000000000000BB
:102DA0000000000000000000000000000000000023
:102DB0000000000000000000000000000000000013
:102DC0000000000000000000000000000000000003
:102DD00000000000000000000000000000000000F3
:102DE00000000000000000000000000000000000E3
:102DF00000000000000000000000000000000000D3
:102E000000000000000000000000000000000000C2
:102E100000000000000000000000000000000000B2
:102E200000000000000000000000000000000000A2
:102E30000000000000000000000000000000000092
:102E40000000000000000000000000000000000082
:102E50000000000000000000000000000000000072
:102E60000000000000000000000000000000000062
:102E70000000000000000000000000000000000052
:102E80000000000000000000000000000000000042
:102E90000000000000000000000000000000000032
:102EA0000000000000000000000000000000000022
:102EB0000000000000000000000000000000000012
:102EC0000000000000000000000000000000000002
:102ED00000000000000000000000000000000000F2
:102EE00000000000000000000000000000000000E2
:102EF00000000000000000000000000000000000D2
:102F000000000000000000000000000000000000C1
:102F100000000000000000000000000000000000B1
:102F200000000000000000000000000000000000A1
:102F30000000000000000000000000000000000091
:102F4000E003F81F00080000080000F8FF014880B7
:102F50000188C000086100083600041C0084E300FA
:102F6000720007000000000000000000B7B400007D
:102F70000000000000000000000000000000000051
:102F80000000000000000000000000000000000041
:102F90000000000000000000000000000000000031
:102FA0000000000000000000000000000000000021
:102FB00000000000000000000100000300FEFF010F
:102FC000620001F87F007E3000800F007FF003F880
:102FD0007F00084000F87F0008400000000000006B
:102FE00000000000BFCD0000000000000000000055
:102FF00000000000000000000000000000000000D1
:1030000000000000000000000000000000000000C0
:1030100000000000000000000000000000000000B0
:10302000000000000000000000000000000000E0C0
:1030300040001E4600104C00105800FE4300104691
:1030400000784C00DC400014F003924F0010400068
:10305000104000000000000000000000BFC600009B
:103060000000000000000000000000000000000060
:103070000000000000000000000000000000000050
:103080000000000000000000000000000000000040
:103090000000000000000000000000000000000030
:1030A00000000000000000081000081000FFFF03EF
:1030B000081000081000E8FF011C02010B86000840
:1030C0006C00081800086F00EF800300000000008B
:1030D00000000000BCBC0000000000000000000078
:1030E00000000000000000000000000000000000E0
:1030F00000000000000000000000000000000000D0
:1031000000000000000000000000000000000000BF
:10311000000000000000000000000000000000FCB3
:10312000FF03000000000000000000000000F8FFA6
:10313000010000000000000000000000000000008E
:10314000FEFF07000000000000000000C8FD200096
:10315000000000000000000000000000000000006F
:10316000000000000000000000000000000000005F
:10317000000000000000000000000000000000004F
:10318000000000000000000000000000000000003F
:1031900000000000000000102000FEFF01102000D1
:1031A000F03F00102000F03F00102000FFFF031050
:1031B0002100FCFF00030103FEFF010000000000EE
:1031C00000000000BBF9200000000000000000002B
:1031D00000000000000000000000000000000000EF
:1031E00000000000000000000000000000000000DF
:1031F00000000000000000000000000000000000CF
:10320000000000000000000000000000000000407E
:103210000000F01F00181800040C00FFFF000482DB
:1032200000048200FCFF000480000400000400028F
:10323000F8FF01000000000000000000C9AB200002
:10324000000000000000000000000000000000007E
:10325000000000000000000000000000000000006E
:10326000000000000000000000000000000000005E
:10327000000000000000000000000000000000004E
:10328000000000000000000000000000000000003E
:10329000000000000000000000000000000000002E
:1032A000000000000000000000000000000000001E
:1032B000000000000000000000000000000000000E
:1032C00000000000000000000000000000000000FE
:1032D00000000000000000000000000000000000EE
:1032E00000000000000000000000000000000000DE
:1032F00000000000000000000000000000000000CE
:1033000000000000000000000000000000000000BD
:1033100000000000000000000000000000000000AD
:10332000000000000000000000000000000000009D
:10333000000000000000000000000000000000008D
:10334000000000000000000000000000000000007D
:10335000000000000000000000000000000000006D
:10336000000000000000000000000000000000005D
:10337000000000000000000000000000000000004D
:10338000000000000000000000000000000000003D
:10339000000000000000000000000000000000002D
:1033A000000000000000000000000000000000001D
:1033B000000000000000000000000000000000000D
:1033C00000000000000000000000000000000000FD
:1033D00000000000000000000000000000000000ED
:1033E00000000000000000000000000000007FF866
:1033F000FF00180000180000180000F8FF3F9801B7
:103400003098031818030818060C180C060818033F
:103410000CF0000CF001061C0786033C7300E00072
:103420000000000000000000B7B400000000000031
:10343000000000000000000000000000000000008C
:10344000000000000000000000000000000000007C
:10345000000000000000000000000000000000006C
:10346000000000000000000000000000000000005C
:10347000000000000000000000000000001000003C
:103480007000FCFFFF0C07C08C03C0C0FF1FF003DF
:103490000E1C8E03007800C0C7073F00F8E0FF1F36
:1034A000600018600018600018E0FF1F600018003E
:1034B0000000000000000000BFCD00000000000080
:1034C00000000000000000000000000000000000FC
:1034D00000000000000000000000000000000000EC
:1034E00000000000000000000000000000000000DC
:1034F00000000000000000000000000000000000CC
:103500000000000000000000000000000000188023
:1035100007187E301860601860801960001BFE0775
:1035200018601818F0711870C3186806186C00FF3E
:1035300066FE18620018600018600018600018002D
:103540000000000000000000BFC6000000000000F6
:10355000000000000000000000000000000000006B
:10356000000000000000000000000000000000005B
:10357000000000000000000000000000000000004B
:10358000000000000000000000000000000000003B
:1035900000000000000000000000000030000330C8
:1035A000000330000330FCFFFF0103300003300054
:1035B0000330FE7FF019603F383030301830600C37
:1035C00030C00630800330E00E3038781F07C0006E
:1035D0000000000000000000BCBC00000000000073
:1035E00000000000000000000000000000000000DB
:1035F00000000000000000000000000000000000CB
:1036000000000000000000000000000000000000BA
:1036100000000000000000000000000000000000AA
:103620000000000000000000000000000000C0F8E2
:10363000FFC018C0CC18C0CCF8FFCC18C0CC180CF8
:10364000CC180CCCD8FFCCD8CCCCD8CCCCD8CCCCCB
:10365000CCCCC0CCCCC004FCC0060C7E000000006A
:103660000000000000000000CBA2200000000000CD
:10367000000000000000000000000000000000004A
:10368000000000000000000000000000000000003A
:10369000000000000000000000000000000000002A
:1036A000000000000000000000000000000000001A
:1036B000000000000000000000000000000000F812
:1036C000FF7F180060180060F8FF7F180666180C6E
:1036D00006180803D8FF7F180C06180C06F8FFFF21
:1036E0000C0C060C0C060406060603060301060075
:1036F0000000000000000000C6C120000000000023
:1037000000000000000000000000000000000000B9
:1037100000000000000000000000000000000000A9
:103720000000000000000000000000000000000099
:103730000000000000000000000000000000000089
:103740000000000000000000000000000200C08433
:10375000FFCC9CC1CC88C1CC80D9CC83D9CC8ED9AC
:10376000CC98D9CC80D9CC80D9CC88D9CC98CDCCA8
:103770000C0CCC0C36C00C63C0C6C1C074807D007C
:103780000000000000000000B2E220000000000085
:103790000000000000000000000000000000000029
:1037A0000000000000000000000000000000000019
:1037B0000000000000000000000000000000000009
:1037C00000000000000000000000000000000000F9
:1037D00000000000000000000000000002001B0CC0
:1037E000007318004338000380FFFF0000031F0030
:1037F0000318000398FF03181802181806981806F3
:10380000D8188678188C38F88D9C0F980800F0002E
:103810000000000000000000CAD4200000000000EA
:103820000000000000000000000000000000000098
:103830000000000000000000000000000000000088
:103840000000000000000000000000000000000078
:103850000000000000000000000000000000000068
:10386000000000000000000000000000008301FED6
:10387000FFFF008301F0FF3F300030F0FF3F3000DA
:1038800030F0FF3F300C30000600FEFFFFC0300C70
:10389000F8FF7F67309860301860301F00300000FC
:1038A0000000000000000000C4BB20000000000079
:1038B0000000000000000000000000000000000008
:1038C00000000000000000000000000000000000F8
:1038D00000000000000000000000000000000000E8
:1038E00000000000000000000000000000000000D8
:1038F00000000000000000000000000000630080E5
:10390000C100C0800160000330000618001C0E00DA
:10391000700200C0F8FF0F00030E00030E800106C6
:10392000800106C0000660000738FC030E0000009E
:103930000000000000000000B7D6200000000000DA
:103940000000000000000000000000000000000077
:103950000000000000000000000000000000000067
:103960000000000000000000000000000000000057
:103970000000000000000000000000000000000047
:1039800000000000000000000018600C30601830DB
:103990006010FEE1FF00600082EDC1C46C636C6CDE
:1039A00036FE65FF306618306618306018FEB1FFCD
:1039B0003030183818181C1C180E0E180202180087
:1039C0000000000000000000B1E620000000000040
:1039D00000000000000000000000000000000000E7
:1039E00000000000000000000000000000000000D7
:1039F00000000000000000000000000000000000C7
:103A000000000000000000000000000000000000B6
:103A1000000000000000000000000000003800006E
:103A20007000FFFFFF003800064E608C6338D03F07
:103A300008001C00202604F8C31CCFFFF10230410F
:103A4000003000FFFFFF00300000300000300000B9
:103A50000000000000000000C2CA200000000000BA
:103A60000000000000000000000000000000000056
:103A70000000000000000000000000000000000046
:103A80000000000000000000000000000000000036
:103A90000000000000000000000000000000000026
:103AA0000000000000000000003080003080013085
:103AB000000330FEFFFE06C03086C43040183030B0
:103AC00030301860F00FC03EF87F30000330000344
:103AD00030000330000330000330FFFF1E00000001
:103AE0000000000000000000BFD82000000000001F
:103AF00000000000000000000000000000000000C6
:103B000000000000000000000000000000000000B5
:103B100000000000000000000000000000000000A5
:103B20000000000000000000000000000000000095
:103B3000000000000000000000000000800160980C
:103B400001608C0163FC3F63860163820163FFFFB8
:103B500063800163800163FC7F638C61638C6163BC
:103B60008C61608C61608C3D6080013F00000000D2
:103B70000000000000000000D6C620000000000089
:103B80000000000000000000000000000000000035
:103B90000000000000000000000000000000000025
:103BA0000000000000000000000000000000000015
:103BB0000000000000000000000000000000000005
:103BC000000000000000000000000000000000FCF9
:103BD000C77F0CC6600CC660FCC77F0CC660003097
:103BE00006FEFFFF006E0000C701F0010F1F00F886
:103BF000FCC77F0CC6600CC660FCC77F0CC66000AB
:103C00000000000000000000C6F7200000000000D7
:103C100000000000000000000000000000000000A4
:103C20000000000000000000000000000000000094
:103C30000000000000000000000000000000000084
:103C40000000000000000000000000000000000074
:103C50000000000000000000000008000018000044
:103C60003000FEFFFF0600C00600C0E0FF0F0000AE
:103C70000700800100E000003000FFFFFF0030007F
:103C8000003000003000003000801F000000000005
:103C90000000000000000000D7D620000000000057
:103CA0000000000000000000000000000000000014
:103CB0000000000000000000000000000000000004
:103CC00000000000000000000000000000000000F4
:103CD00000000000000000000000000000000000E4
:103CE00000000000000000000020800130C000F84B
:103CF000DFFFC8600684710C023908011000600003
:103D00000C70000CB8FFFF3C000C36040C320C0C9D
:103D100030180C30100C30000C30000C30E0070074
:103D20000000000000000000B7FB200000000000C1
:103D30000000000000000000000000000000000083
:103D40000000000000000000000000000000000073
:103D50000000000000000000000000000000000063
:103D60000000000000000000000000000000000053
:103D7000000000000000000000000000C0300060F3
:103D8000E000F0FFFF386000F6FFFF336000F0FF57
:103D9000FF306000F0FFFF30000000300000300016
:103DA000FEFFFF00FE018031077030380F30C00089
:103DB0000000000000000000BCAF20000000000078
:103DC00000000000000000000000000000000000F3
:103DD00000000000000000000000000000000000E3
:103DE00000000000000000000000000000000000D3
:103DF00000000000000000000000000000000000C3
:103E0000000000000000000000000000001800009A
:103E10001800001800001800FCFF7F0C18600C1838
:103E2000600C18600C18600C1860FCFF7F0C1860A8
:103E3000001800001800001800001800001800000A
:103E40000000000000000000D6D0200000000000AC
:103E50000000000000000000000000000000000062
:103E60000000000000000000000000000000000052
:103E70000000000000000000000000000000000042
:103E80000000000000000000000000000000000032
:103E9000000000000000000000001C0000380000CE
:103EA0006000FFFFFF60000C60000CC00006C00057
:103EB0000680010300830100C700006C0000380089
:103EC00000EE00C0830778003C0600E00000000020
:103ED0000000000000000000CEC420000000000030
:103EE00000000000000000000000000000000000D2
:103EF00000000000000000000000000000000000C2
:103F000000000000000000000000000000000000B1
:103F100000000000000000000000000000000000A1
:103F2000000000000000000000000000000000F899
:103F3000FF3F180030180030F8FF3F18003018001D
:103F400030F8FF3F18003004C62008C63018C638C5
:103F500030C61820C60800C600FEFFFF00000000A3
:103F60000000000000000000CFD42000000000008E
:103F70000000000000000000000000000000000041
:103F80000000000000000000000000000000000031
:103F90000000000000000000000000000000000021
:103FA0000000000000000000000000000000000011
:103FB000000000000000000000000000000000FC05
:103FC000FF7F000000000000000000000000FFFF75
:103FD000FF00300020300430300C383018183030FA
:103FE0000C30600630C0023080003000801F0000BE
:103FF0000000000000000000CABE20000000000019
:1040000000000000000000000000000000000000B0
:1040100000000000000000000000000000000000A0
:104020000000000000000000000000000000000090
:104030000000000000000000000000000000000080
:10404000000000000000000000000000000000FE72
:10405000FFFF003000003000003000303000303012
:104060000030300030F07F30300030300030300031
:10407000303000303000303000FFFFFF0000000023
:104080000000000000000000D5FD2000000000003E
:104090000000000000000000000000000000000020
:1040A0000000000000000000000000000000000010
:1040B0000000000000000000000000000000000000
:1040C00000000000000000000000000000000000F0
:1040D000000000000000000000000000000300805D
:1040E0000100C0FF076000033880010C6000F4FF8E
:1040F0003F300030303030303030303030303030E1
:1041000030303030F83000980300070EE001781EA0
:1041100000C0000000000000B8BA2000000000004D
:10412000000000000000000000000000000000008F
:10413000000000000000000000000000000000007F
:10414000000000000000000000000000000000006F
:10415000000000000000000000000000000000005F
:10416000000000000000000000000000003000001F
:10417000300000300000300060300630300C30304D
:104180001C1830381830300C30600E30E00630C06B
:10419000023080003000003000C01F00000000002E
:1041A0000000000000000000D0A12000000000007E
:1041B00000000000000000000000000000000000FF
:1041C00000000000000000000000000000000000EF
:1041D00000000000000000000000000000000000DF
:1041E00000000000000000000000000000000000CF
:1041F000000000000000000000000000C00003C636
:104200000C01C48601C080FFFECF60E0C060F8E30F
:1042100060CCFE31C39831308031FF0F1B0C0C1B7A
:1042200006060E3C070EE0031BE0C3313C76E007B8
:104230001880000000000000CAFD200000000000FF
:10424000000000000000000000000000000000006E
:10425000000000000000000000000000000000005E
:10426000000000000000000000000000000000004E
:10427000000000000000000000000000000000003E
:1042800000000000000000000000000030000330CB
:10429000000330FEFF300003300003FFFD7F300CD1
:1042A0006030FC7F300C6030FC7F300C60B0FD7FF4
:1042B000780C6007FFFF00601C001CF0800300000A
:1042C0000000000000000000CCEE20000000000014
:1042D00000000000000000000000000000000000DE
:1042E00000000000000000000000000000000000CE
:1042F00000000000000000000000000000000000BE
:1043000000000000000000000000000000000000AD
:104310000000000000000000000000000008000095
:104320001800003800FFFFFF000E00808301C0006E
:104330000770000CFCFF3F00C32000C30080C100D9
:1043400080C1C0E0C0C038C0C007807F000000004E
:104350000000000000000000B3E4200000000000A6
:10436000000000000000000000000000000000004D
:10437000000000000000000000000000000000003D
:10438000000000000000000000000000000000002D
:10439000000000000000000000000000000000001D
:1043A00000000000000000000000000000380000D5
:1043B0007000FEFFFF0600C00686C3C0011E380065
:1043C000700600C0000000F8FF3F00180000180051
:1043D000001800001800001800FEFFFF0000000099
:1043E0000000000000000000BFD520000000000019
:1043F00000000000000000000000000000000000BD
:1044000000000000000000000000000000000000AC
:10441000000000000000000000000000000000009C
:10442000000000000000000000000000000000008C
:1044300000000000000000000000000030600030BC
:10444000300030F07F307870FF5B3830CC0CF88073
:1044500007B8C10F3C7A78360EC033F87F31186048
:1044600030186030186030186030F87F3018600005
:104470000000000000000000B8F120000000000073
:10448000000000000000000000000000000000002C
:10449000000000000000000000000000000000001C
:1044A000000000000000000000000000000000000C
:1044B00000000000000000000000000000000000FC
:1044C00000000000000000000000000000000000EC
:1044D00000000000000000000000000000000000DC
:1044E00000000000000000000000000000000000CC
:1044F00000000000000000000000000000000000BC
:1045000000000000000000000000000000000000AB
:10451000000000000000000000000000000000009B
:10452000000000000000000000000000000000008B
:10453000000000000000000000000000000000007B
:10454000000000000000000000000000000000006B
:10455000000000000000000000000000000000005B
:10456000000000000000000000000000000000004B
:10457000000000000000000000000000000000003B
:10458000000000000000000000000000000000002B
:10459000000000000000000000000000000000001B
:1045A000000000000000000000000000000000000B
:1045B00000000000000000000000000000000000FB
:1045C00000000000000000000000000000000000EB
:1045D00000000000000000000000000000000000DB
:1045E00000000000000000000000000000000000CB
:1045F00000000000000000000000000000000000BB
:1046000000000000000000000000000000000000AA
:10461000000000000000000000000000000000009A
:10462000000000000000000000000000000000008A
:10463000000000000000000000000000000000007A
:104640000000C03FE0FFFF7FE0FF3F006000000090
:10465000600000006000000060000000E0FFFF3F1D
:10466000E0FFFF3F600C0038601C001C6038000E4B
:104670006030000E60E0000760C0C1037080E3019D
:104680003000FF0030003C003800FF001CE0E70372
:104690001CFE803FCE3F00FC840300C000000000F1
:1046A0000000000000000000B7B40000000000009F
:1046B00000000000000000000000000000000000FA
:1046C00000000000000000000000000000000000EA
:1046D00000000000000000000000000000000000DA
:1046E00000000000000000000000000000000000CA
:1046F00000000000000000000000000000000000BA
:1047000000000000000000000000000000000000A9
:104710000000000000000000000000000000000099
:104720000000000000000000000000000000000089
:1047300000000000000000000000000000800000F9
:1047400000C0030000800300FCFFFF7FFCFFFF7F31
:104750000C0800600C0E00600CFFFF6780FFFF0775
:10476000E00F8003781CE00118F87C0000C00F0007
:1047700000FFFF00FF1FF0FF3E0000FCC0FFFF072F
:10478000C0FFFF07C0000006C0000006C000000612
:10479000C0FFFF07C0FFFF07C000000600000000C9
:1047A0000000000000000000BFCD0000000000007D
:1047B00000000000000000000000000000000000F9
:1047C00000000000000000000000000000000000E9
:1047D00000000000000000000000000000000000D9
:1047E00000000000000000000000000000000000C9
:1047F00000000000000000000000000000000000B9
:1048000000000000000000000000000000000000A8
:104810000000000000000000000000000000000098
:104820000000000000000000000000000000000088
:104830000000000000000000000000000000000672
:10484000001F0006FF3F0206FE000606C0000C0621
:10485000C0001806C0003006FF1F2006FF1F00061C
:10486000C0800006E0800306E0030706F0060C06A1
:10487000F00C0806D8180006DC10F0FFCEF0FFFFA1
:10488000C7F01F06C7000006C2000006C0000006F1
:10489000C0000006C0000006C0000006C000000600
:1048A0000000000000000000BFC600000000000083
:1048B00000000000000000000000000000000000F8
:1048C00000000000000000000000000000000000E8
:1048D00000000000000000000000000000000000D8
:1048E00000000000000000000000000000000000C8
:1048F00000000000000000000000000000000000B8
:1049000000000000000000000000000000000000A7
:104910000000000000000000000000000000000097
:104920000000000000000000000000000000000087
:104930000000000000000000000000000000000077
:104940006000C0006000C0006000C00060F0FFFFB9
:10495000FFF7FFFFFF07C0006000C0006000C0005D
:104960006000C00060F6FF7FE0F7FF7FFC80016021
:104970007F000330630003186000060C60000C0722
:104980006000B8036000F0016000F8016000BE073D
:1049900060E00F7E7FFC01F83F3800C0000000009F
:1049A0000000000000000000BCBC0000000000008F
:1049B00000000000000000000000000000000000F7
:1049C00000000000000000000000000000000000E7
:1049D00000000000000000000000000000000000D7
:1049E00000000000000000000000000000000000C7
:1050700000000000C003C003C003C003C003C0039E
:105080008003800180018001800180018001800116
:1050900080010000000000008001C003C003800107
:1050A000000000000000000000000000C018E01C2C
:1050B000E01C700E300618038C0184000000000014
:1050C00000000000000000000000000000000000E0
:1050D00000000000000000000000000000000000D0
:1050E00000000000000000000000000000000000C0
:1050F0000000000020102010201020102010FE7F43
:10510000FE7FFE7F10081008100810081008100815
:10511000FE7FFE7FFE7F180C0804080408040804C4
:10512000000000000000000000000000000000007F
:1051300080008000C003B00C90189818981C981C30
:10514000B800B000F000E000C0038007800F800CC2
:10515000801C80189C189C188C188C0C9806E003F6
:1051600080008000800000000000000000000000BF
:10517000000000001C083608220463046302630276
:105180006302630163012201B61C9C364022406326
:105190004063206320631063106310220836081CEC
:1051A00000000000000000000000000000000000FF
:1051B00000000000F00098008C018C018C018C0133
:1051C0008C00CC005C0038001C3E3C0832087308A0
:1051D0006304E304C3048303834306678C3E781CA3
:1051E0000000000000000000000000001C003C0067
:1051F0003C003000300010000C00060000000000F1
:10520000000000000000000000000000000000009E
:10521000000000000000000000000000000000008E
:10522000000000000000000000000000004000201E
:1052300000100018000C0004000600020003000328
:105240008001800180018001800180018001800156
:10525000800100030003000200060004000C001897
:1052600000100020004000000000000002000400C8
:10527000080018003000200060004000C000C0009E
:105280008001800180018001800180018001800116
:105290008001C000C000C000600020003000180085
:1052A00008000400020000000000000000000000F0
:1052B00000000000000000000003800380030C6376
:1052C0001C713839600D80038003600D38391C7102
:1052D0008C61800380038003000000000000000058
:1052E00000000000000000000000000000000000BE
:1052F00000000000000000000000000100010001AB
:105300000001000100010001FC7F0001000100011B
:105310000001000100010001000000000000000089
:10532000000000000000000000000000000000007D
:10533000000000000000000000000000000000006D
:10534000000000000000000000000000000000005D
:1053500000000000000000001C003C003C00300089
:10536000300010000C0006000000000000000000EB
:10537000000000000000000000000000000000002D
:105380000000000000000000FE7F000000000000A0
:10539000000000000000000000000000000000000D
:1053A00000000000000000000000000000000000FD
:1053B00000000000000000000000000000000000ED
:1053C00000000000000000000000000000000000DD
:1053D000000000000000000018003C003C00180025
:1053E000000000000000000000000000000000407D
:1053F000006000200030001000180008000C0004BD
:10540000000600020003000180018000C00040008F
:105410006000200030001000180008000C0004009C
:105420000600020000000000000000000000000074
:1054300000000000C0036004300C18181818181081
:105440000C300C300C300C300C300C300C300C307C
:105450000C300C30181018181818300C6004C003E9
:10546000000000000000000000000000000000003C
:105470000000000000018001F8018001800180012E
:105480008001800180018001800180018001800114
:10549000800180018001800180018001C003F81F2C
:1054A00000000000000000000000000000000000FC
:1054B00000000000E007101C0818043004300C3015
:1054C0000C30003000180018000C000600038001AA
:1054D000C00040002020102008200430FC1FFC1FCA
:1054E00000000000000000000000000000000000BC
:1054F00000000000E00318060C0C0C180C180C1827
:1055000000180018000C0006C003000E0018001060
:10551000003000300C300C300C100C18180CE0036C
:10552000000000000000000000000000000000007B
:105530000000000000060006000700078006800645
:105540004006200620061006100608060C06040673
:105550000206FE3F00060006000600060006C03FE9
:10556000000000000000000000000000000000003B
:1055700000000000F03FF03F0800080008000800AD
:1055800008000800C807280C181808100030003060
:10559000003000300C300C3004180418180CE003F4
:1055A00000000000000000000000000000000000FB
:1055B000000000008007601830181018180008005C
:1055C00008000C00CC076C0C1C181C100C300C30A4
:1055D0000C300C300C30183018103018700CC0071C
:1055E00000000000000000000000000000000000BB
:1055F00000000000F83FF83F08100C0804080404FD
:10560000000400020002000200010001800080008E
:1056100080008000C000C000C000C000C000C0000A
:10562000000000000000000000000000000000007A
:1056300000000000E007300C18180C300C300C3063
:105640001C301C107818F004E003180F0C1E0C1C02
:10565000063806300630063006300C18180CE00309
:10566000000000000000000000000000000000003A
:1056700000000000E00318040C080C1806100630A7
:1056800006300630063006300E380C341836F0314D
:1056900000300018001800080C0C0C060C03F00178
:1056A00000000000000000000000000000000000FA
:1056B00000000000000000000000000000000000EA
:1056C00000008001C003C003800100000000000052
:1056D00000000000000000008001C003C003800142
:1056E00000000000000000000000000000000000BA
:1056F00000000000000000000000000000000000AA
:1057000000000000C001C001C00100000000000056
:1057100000000000000000000000C001C001C00146
:105720008001C000C0000000000000000000000078
:10573000000000000020001000080004000200012A
:105740008000400020001000080008001000200029
:10575000400080000001000200040008001000204A
:105760000000000000000000000000000000000039
:105770000000000000000000000000000000000029
:105780000000FE7F00000000000000000000FE7F1F
:105790000000000000000000000000000000000009
:1057A00000000000000000000000000000000000F9
:1057B00000000000040008001000200040008000ED
:1057C000000100020004000800100010000800049E
:1057D00000020001800040002000100008000400CA
:1057E00000000000000000000000000000000000B9
:1057F00000000000C0073018183008600C601C6002
:105800001C601C6000300018000E00030001000145
:1058100000010001000000008001C003C0038001FE
:105820000000000000000000000000000000000078
:1058300000000000C0076008301018200C2B8C4DB1
:10584000844CC64CC6446644664466446646662636
:1058500066266417CC0C0C40082018303018C0079E
:105860000000000000000000000000000000000038
:1058700000000000C001C001C001C00120032003DE
:105880002003200330021006100610061004F80F43
:10589000080C080C080C04180418041806381F7C9F
:1058A00000000000000000000000000000000000F8
:1058B00000000000FE07181C1818183018301830A7
:1058C000183018301818180CF80718181830182045
:1058D0001860186018601860186018301818FE0FEB
:1058E00000000000000000000000000000000000B8
:1058F00000000000C0076038103018600C400C40F9
:105900000C00060006000600060006000600060061
:10591000060006000C400C40082018103008C00794
:105920000000000000000000000000000000000077
:1059300000000000FE03180E181818101830183058
:105940001860186018601860186018601860186097
:105950001860182018301830181818181806FE0388
:105960000000000000000000000000000000000037
:1059700000000000FE3F18301820184018401800A2
:10598000180018081808180CF80F180C1808180830
:105990001800180018001840184018201830FE3F52
:1059A00000000000000000000000000000000000F7
:1059B00000000000FE3F183818201840184018005A
:1059C000180018081808180CF80F180C18081808F0
:1059D00018081800180018001800180018007E0099
:1059E00000000000000000000000000000000000B7
:1059F00000000000C003300C100818180C100C1028
:105A0000040006000600060006000600067E0618D2
:105A1000061804180C180C18081818183004E0039D
:105A20000000000000000000000000000000000076
:105A3000000000003FFC0C300C300C300C300C30FF
:105A40000C300C300C300C30FC3F0C300C300C3077
:105A50000C300C300C300C300C300C300C303FFC67
:105A60000000000000000000000000000000000036
:105A700000000000F81F800180018001800180018A
:105A8000800180018001800180018001800180010E
:105A90008001800180018001800180018001F81F68
:105AA00000000000000000000000000000000000F6
:105AB00000000000E07F0006000600060006000669
:105AC00000060006000600060006000600060006A6
:105AD0000006000600060006000600060006000696
:105AE0000E060E038E01FC00000000000000000006
:105AF000000000007E3E180C180418061802180159
:105B0000180198009800D800B801B80118031803CC
:105B100018061806180C180C180C181818187E7C83
:105B20000000000000000000000000000000000075
:105B3000000000007E00180018001800180018006F
:105B40001800180018001800180018001800180095
:105B50001800180018001840184018201830FE3F90
:105B60000000000000000000000000000000000035
:105B7000000000000FF01C381C381C381C381C3486
:105B8000343434343434343234326432643264324F
:105B900064314431C431C431C430C43084308FFCEA
:105BA00000000000000000000000000000000000F5
:105BB000000000000FF81C201C203420342064203A
:105BC0006420C420C42084218421042304230426C7
:105BD0000426042C042C04380438043004301F201C
:105BE00000000000000000000000000000000000B5
:105BF00000000000C003300C181808100C300C30E6
:105C000006200660066006600660066006600660A4
:105C1000066004600C300C3008101818300CC003FB
:105C20000000000000000000000000000000000074
:105C300000000000FE0F1818183018601860186077
:105C400018601860186018301818F8071800180045
:105C500018001800180018001800180018007E001E
:105C60000000000000000000000000000000000034
:105C700000000000C003300C181808100C300C3065
:105C800006600660066006600660066006600660E4
:105C900006600660E4211C331C36181E300EC00757
:105CA000004C003C00380000000000000000000034
:105CB00000000000FE07181C1818183018301830A3
:105CC000183018301818180CF8071803180318069D
:105CD00018061806180C180C180C181818187E78C6
:105CE00000000000000000000000000000000000B4
:105CF00000000000F013181E0C18061806100610FD
:105D000006000E003C00F800E003800F001E0018A3
:105D1000003802300230063004300C181C0CE40746
:105D20000000000000000000000000000000000073
:105D300000000000FC3F8C2184618241824180018F
:105D4000800180018001800180018001800180014B
:105D50008001800180018001800180018001E007D5
:105D60000000000000000000000000000000000033
:105D7000000000003F7C0C100C100C100C100C10DC
:105D80000C100C100C100C100C100C100C100C1033
:105D90000C100C100C100C100C1018083804E00338
:105DA00000000000000000000000000000000000F3
:105DB000000000003E781830181018101810300835
:105DC0003008300830083004600460046004600269
:105DD000C002C002C002C0018001800180008000BA
:105DE00000000000000000000000000000000000B3
:105DF00000000000CFF386618621842104210C235A
:105E00008C238C238C138C13881348125816581625
:105E1000580E380E300E300E300C300410041004C2
:105E20000000000000000000000000000000000072
:105E3000000000003E7C1810180830083004600490
:105E40006002C002C0018001800180018003400324
:105E500040062006200E100C100C181808383E7C46
:105E60000000000000000000000000000000000032
:105E7000000000007E7C1C10181018083008300844
:105E8000300460046004C002C002C00180018001CF
:105E90008001800180018001800180018001E00794
:105EA00000000000000000000000000000000000F2
:105EB00000000000F87F383018300C180418000C6F
:105EC000000600060003000380018001C000C0003E
:105ED000600060003000184018600C200C38FE3F55
:105EE0000000000000000000000000000000C03FB3
:105EF000C000C000C000C000C000C000C000C000A2
:105F0000C000C000C000C000C000C000C000C00091
:105F1000C000C000C000C000C000C000C000C00081
:105F2000C000C03F000000000000000000000000B2
:105F30000000180018001000300020006000600011
:105F40004000C000800080018001000100030002C9
:105F500000060006000C000C000C001800180030B1
:105F60000030003000600000000000000000FC0372
:105F70000003000300030003000300030003000309
:105F800000030003000300030003000300030003F9
:105F900000030003000300030003000300030003E9
:105FA0000003FC030000000000000000C003C00765
:105FB0006004100800000000000000000000000065
:105FC00000000000000000000000000000000000D1
:105FD00000000000000000000000000000000000C1
:105FE00000000000000000000000000000000000B1
:105FF00000000000000000000000000000000000A1
:106000000000000000000000000000000000000090
:106010000000000000000000000000000000000080
:10602000000000000000FFFF000000007800C0003A
:10603000000100000000000000000000000000005F
:106040000000000000000000000000000000000050
:106050000000000000000000000000000000000040
:106060000000000000000000000000000000000030
:106070000000000000000000000000000000000020
:106080000000E007180C0C180C180C18001CE01B82
:1060900038180C1806180618061806980C9EF87181
:1060A00000000000000000000000000000000000F0
:1060B000000010001E00180018001800180018003A
:1060C00018009807581C3818383018301830183015
:1060D000183018301830183018103818380CC80715
:1060E00000000000000000000000000000000000B0
:1060F00000000000000000000000000000000000A0
:106100000000C0077008301818180C180C000C009C
:106110000C000C000C000C20182018103008C007D0
:10612000000000000000000000000000000000006F
:1061300000000010001E00180018001800180018B9
:106140000018E01B301C181818180C180C180C1824
:106150000C180C180C180C180818181C307AE009C8
